:020000040800F2
:1000000000090020C50100087B2B0008AD23000873
:10001000CD260008D10200080139000800000000C8
:10002000000000000000000000000000152F000884
:100030000904000800000000392C0008AD32000857
:10004000DF010008DF010008DF010008DF01000810
:10005000DF010008DF010008DF010008DF01000800
:10006000DF010008DF010008DF010008DF010008F0
:10007000DF010008DF010008DF010008DF010008E0
:10008000DF010008DF010008DF010008DF010008D0
:10009000D5020008DF010008DF010008DF010008C9
:1000A000DF010008DF010008DF010008DF010008B0
:1000B00051330008DF010008DF010008DF010008FC
:1000C000DF010008DF010008DF010008DF01000890
:1000D000DF01000859380008DF010008DF010008CF
:1000E000DF010008DF010008DF010008DF01000870
:1000F000DF010008DF010008DF010008DF01000860
:10010000DF010008DF010008DF010008DF0100084F
:10011000DF010008DF010008DF010008DF0100083F
:10012000DF010008DF01000859030008DF010008B3
:10013000DF010008DF010008DF010008DF0100081F
:10014000DF010008DF010008DF010008DF0100080F
:10015000DF010008DF010008DF010008DF010008FF
:10016000DF010008DF010008DF010008DF010008EF
:10017000DF010008DF010008DF01000800000000C7
:10018000DF010008DF010008DF010008DF010008CF
:10019000DF010008DF010008DF010008DF010008BF
:1001A0000000000000000000DF010008DFF810D0B0
:1001B00000F07CF800480047F5390008AFF30080F4
:1001C000000900200648804706480047FEE7FEE792
:1001D000FEE7FEE7FEE7FEE7FEE7FEE7FEE7FEE7F7
:1001E00035330008AD0100082DE9F05F0546002019
:1001F00092469B4688460646814640241BE0284698
:1002000041464746224600F041F853465A46C01A36
:10021000914110D311461846224600F028F82D1AB5
:1002200067EB01084F4622460120002100F01FF82D
:1002300017EB00094E41201EA4F10104DFDC484603
:1002400031462A464346BDE8F09FD2B201E000F8AD
:10025000012B491EFBD270470022F6E710B513466A
:100260000A4604461946FFF7F0FF204610BD202A33
:1002700004DB203A00FA02F1002070479140C2F1FD
:10028000200320FA03F3194390407047202A04DB2F
:10029000203A21FA02F00021704721FA02F3D040FF
:1002A000C2F120029140084319467047064C074DA1
:1002B00006E0E06840F0010394E807009847103436
:1002C000AC42F6D3FFF776FF643A0008843A0008A0
:1002D000FEE70000014800F014BA000028000020EA
:1002E00010B50446134A00200E218AB0944201D171
:1002F000059000E005910122CDE9060203900490EB
:10030000CDE908210090019002906946204600F056
:10031000FDF800B1FEE7204600F0CEFB00B1FEE79D
:100320000221204600F072F8002800D0FEE70AB053
:1003300010BD00002800002001600021C1600822DB
:10034000026181600175704708B56B4600F070F876
:10035000002800D0FEE708BD014800F03BBC0000CB
:10036000B401002001681823CAB2103AB2FBF3F2BC
:10037000054B6FF30901032A9B5CC36500D9091D76
:1003800081650846704700002C3A000810B5014608
:1003900000208B698A6A4FF0C07453B1B3F5005FD7
:1003A00015D072B1012A0CD0022A0AD0032A09D131
:1003B00004E01AB1012A06D0022A03D1C96AC90190
:1003C00000D5012010BDC96AA142FAD010BD002A93
:1003D000F7D0012AF2D0022AF3D0032AF3D010BDBD
:1003E00030B50468256825F48025256004686360BD
:1003F0008368402B036803D099600068C26030BDF9
:100400009A600068C16030BD7047704790F8202046
:10041000012A07D0022A05D0416A41F480214162B5
:1004200001207047006842690A434261002070471A
:10043000F0B590F820500468A468012D05D0022D75
:1004400003D0416A41F480215DE014F0406F01D196
:10045000E50055D5C4F30164022C03D9416A41F487
:10046000000150E00125A5401D608D684FF4C07368
:100470009DB1CE6835434E6845EAC605066803EB74
:100480000417F5514FF4C275076805EB04150E69A2
:100490007E51097D012905D009E00E88CD6845EA25
:1004A0004655EBE701684E5946F480764E51117976
:1004B000D579567941EA056195792D0445EA0625F5
:1004C00029434FF4C676056806EB0416A951117846
:1004D000D57841EA0561957852782D0445EA0222E3
:1004E00011434FF4C475026805EB041551510068BF
:1004F00003EB0411425842F0010242500020F0BDCB
:10050000416A41F4001141620120F0BD10B590F83C
:100510002020012A07D0022A05D0416A41F4802117
:100520004162012010BD3B48D0F8002242F0010298
:10053000C0F80022D0F8002222F47C52C0F8002239
:10054000D0F800224B6A42EA0322C0F800220A7D5A
:1005500002F01F0301229A40D0F81C329343C0F8E6
:100560001C32CB69B3B9D0F80C329343C0F80C32CB
:100570008C894B6864F31F434C6900EBC404C4F8D6
:1005800040320C890B6864F31F434C6900EBC404D0
:10059000C4F84432CB69012B16D1D0F80C32134386
:1005A000C0F80C320C884B6864F31F434C6900EBB5
:1005B000C404C4F840320C89CB6864F31F434C690F
:1005C00000EBC404C4F844328B69002BD0F8043229
:1005D0000ED01343C0F804320B69002BD0F814324C
:1005E00008D01343C0F81432096A012904D008E086
:1005F0009343EFE79343F5E7D0F81C121143C0F89B
:100600001C12D0F8001221F00101C0F800120020E5
:1006100010BD000000640040704730B590F82040E5
:10062000012C05D0022C03D0416A41F480215DE009
:100630000468002955D02469A40754D04FF4D87415
:10064000056804EB01142D5915F004059560056843
:100650002D594ED0ED08556005682C5904F0020460
:10066000D4604FF4DA74056804EB01142D5905F0D9
:100670000F05156105682D59C5F3072595610568B6
:100680002C59240C54614FF4DC72046802EB011203
:10069000A4581C700468A458240A5C700468A45808
:1006A000240C9C700468A258120EDA704FF4DE72AB
:1006B000046802EB0112A4581C710468A458240AAF
:1006C0005C710468A458240C9C710468A258120E32
:1006D000DA71006881B1016941F0200101610020F7
:1006E00030BDE468A8E7416A41F40011416201208D
:1006F00030BD6D0D1560AFE7C16841F02001C160EC
:10070000EDE72DE9F05F0546006800244669D0F862
:1007100004908768D0F80CB0D0F810A0D0F81880FA
:10072000F10748D0F90714D001218160B80703D53B
:10073000284600F0EEF90CE0780702D54FF400648B
:1007400007E0380702D54FF4805402E0284600F055
:10075000DFF9F80516D529684FF480708860B80570
:1007600003D5284600F0D7F90CE0780502D544F40B
:10077000005407E0380502D544F4804402E02846DE
:1007800000F0C8F9F80316D529684FF48030886066
:10079000B80303D5284600F0C0F90CE0780302D571
:1007A00044F4004407E0380302D544F4803402E006
:1007B000284600F0B1F9300707D55FEACB6004D5D1
:1007C0002968102044F40074C86070074FF00807CF
:1007D00007D55FEA0B7004D52868C760284600F08B
:1007E00057F9B00706D52868C068800702D02846A8
:1007F00000F04FF9700607D55FEACA6004D5296892
:10080000102044F480640861B00607D55FEA0A70DE
:1008100004D528680761284600F04BF9F00606D594
:1008200028680069800702D0284600F043F9B00329
:1008300008D55FEAC96005D52968102048602846B8
:1008400000F039F9F00307D55FEA097004D528688C
:100850004760284600F062F9300446D55FEA4970E7
:1008600040D5F00504D55FEAC87001D044F001041A
:10087000B00504D55FEA887001D544F00204700524
:1008800004D55FEA487001D544F00404300529D549
:1008900018F0700F26D008F07000402815D006DC44
:1008A000102809D020280AD0302816D10AE0502874
:1008B0000ED0602811D10EE044F008040DE044F0A1
:1008C00010040AE044F0200407E044F0400404E08F
:1008D00044F0800401E044F480742868816921F0C8
:1008E00070018161296804204860002C05D0686A85
:1008F000204368622846FFF78FFEBDE8F09F70B581
:10090000040003D094F8200010B104E0012070BD71
:10091000204600F081F82068016841F00101016083
:1009200000F0E2FB0546052604E000F0DDFB401B7D
:100930000A2811D820684068C007F6D020680168EE
:1009400021F00201016000F0CFFB05460BE000F052
:10095000CBFB401B0A2806D9606A40F40030606275
:1009600084F82060D2E7206840688007EFD4207EBA
:100970000128206801683DD021F080010160607E7F
:1009800001282068016838D021F040010160A07E74
:1009900001282068016833D021F020010160E07E49
:1009A0000128206801682ED041F010010160207FED
:1009B00001282068016829D021F008010160607FCA
:1009C00001282068016824D021F004010160D4E9E5
:1009D00002010843D4E90412114308436168491E27
:1009E00008432168C86100206062012084F820006B
:1009F000002070BD41F08001C0E741F04001C5E733
:100A000041F02001CAE721F01001CFE741F00801D1
:100A1000D4E741F00401D9E710B586B004461421AB
:100A20006846FFF719FC17492068884227D1164805
:100A30000021026842F000720260006800F000705D
:100A4000059011481038026842F008020260006800
:100A5000022200F0080005900320CDE90210CDE944
:100A60000002092004906946084800F023FA002299
:100A70001146142000F0A6FB142000F095FB06B0F0
:100A800010BD00000064004040380240000C0240ED
:100A9000704710B58AB0044607AB6A460021FFF7DD
:100AA000BCFD009807AA81B2204601F0AFFF0AB052
:100AB00010BD70477047704770B5044690F820002D
:100AC000012804D0606A40F40020606218E002202F
:100AD00084F820002068016821F00101016000F025
:100AE00003FB05460EE000BF00F0FEFA401B0A289B
:100AF00008D9606A40F400306062052084F8200064
:100B0000012070BD20684068C007EDD1606270BDF3
:100B100070477047704770477047704770472DE9BE
:100B2000F0410446876D00F0DFFA064694F8350080
:100B30000025022806D08020606584F8345001200A
:100B4000BDE8F0812068016821F01601016020688D
:100B5000416921F080014161206C08B9A06C20B18D
:100B60002068016821F0080101602068016821F017
:100B7000010101600CE000F0B7FA801B052807D9DD
:100B800020206065032084F8350084F83450D7E7CE
:100B900020680068C007EED194F85C103F208840C0
:100BA000B860012084F8350084F834500020C7E78D
:100BB00090F83510022903D080214165012070474B
:100BC000052180F835100068016821F001010160FD
:100BD000002070472DE9F84304464FF00009CDF896
:100BE000009063484FF41651A56D0068B0FBF1F713
:100BF0002E6894F85C10082000FA01F131420FD001
:100C000021680A6852070BD50A6822F004020A60BC
:100C100094F85C108840A860606D40F00100606549
:100C200094F85C104FF0010808FA01F0304208D047
:100C300021684969090604D5A860606D40F002008A
:100C4000606594F85C1004208840304208D0216828
:100C50000968890704D5A860606D40F004006065EC
:100C600094F85C1010208840304218D02168096840
:100C7000090714D5A86020680168490304D50068F5
:100C8000000308D5A16C07E00168C90503D4016819
:100C900021F008010160216C09B12046884794F8D1
:100CA0005C1020208840304231D021680968C90694
:100CB0002DD5A86094F8350005282068016806D075
:100CC000490347D5006800031DD4616C1CE021F086
:100CD000160101602068416921F080014161206CAA
:100CE00008B9A06C20B12068016821F008010160FA
:100CF00094F85C103F208840A86084F8358084F820
:100D00003490216D1FE0E16B09B120468847606D8A
:100D100000282BD0606DC00714D0052084F8350062
:100D20002068016821F0010101600098401C0090DA
:100D3000B84203D820680068C007F6D184F835802F
:100D400084F83490E16C002910D001B02046BDE851
:100D5000F04308470168C905D5D4016821F01001A6
:100D6000016084F8358084F83490CCE7BDE8F883DE
:100D70000C0000202DE9F041044600F0B5F90646CC
:100D80005CB1022084F83500002584F834502068D6
:100D9000016821F0010101600DE00120BDE8F08152
:100DA00000F0A2F9801B052805D9202060650320EA
:100DB00084F83500F2E720680068C007F0D12268A7
:100DC000116820480140D4E901031843D4E90336EF
:100DD0003343184363691843A3691843E36918430D
:100DE000236A18430843616A042903D1D4E90B1329
:100DF00019430843106020684069666A20F00701C3
:100E000030460E43012704280CD1A06A0643E06A4D
:100E100040B12046FFF7BAFA20B14020606584F85F
:100E20003570BAE7206846612046FFF79BFA94F8D0
:100E30005C203F2191408160656584F83570002019
:100E4000ACE700003F8010F070B5044690F8340025
:100E5000002501280CD0012084F8340094F8356076
:100E60000020012E06D084F834000225284670BDEB
:100E7000022070BD022684F8356060652046FFF7C9
:100E8000AFFA2068016841F001010160EEE700005F
:100E900070B5044600F028F90546601C02D00448ED
:100EA0000078044400F020F9401BA042FAD370BD42
:100EB000000000202DE9F84FDFF8F8A100220124FE
:100EC0000AF1040B03254FF00F090BF1040E00BFCC
:100ED0000B6804FA02F63340B34270D10F7907F081
:100EE0000307012F01D0022F16D187684FEA42086D
:100EF00005FA08FC27EA0C07D1F80CC00CFA08FC2C
:100F00004CEA070CC0F808C04768B7430E79C6F32F
:100F1000001696403E4346600E79F643B6070AD067
:100F2000C7684FEA420C05FA0CF6B7438E6806FA1A
:100F30000CF63E43C6600E7906F00306022E10D171
:100F4000D60800EB8608D8F8206057074FEAD76C20
:100F500009FA0CF7BE430F6907FA0CF73743C8F8D4
:100F6000207006684FEA420C05FA0CF7BE430F7971
:100F700007F0030707FA0CF7374307604E6816F4CB
:100F8000403F1CD04C4E376847F480473760366886
:100F900022F0030706F480460096484E07EB060C45
:100FA000DCF8086897073F0F09FA07F826EA0806F1
:100FB000DFF80C81404503D14FF0000841E072E0BA
:100FC000DFF80081404502D14FF0010839E0DFF839
:100FD000F880404502D14FF0020832E0DFF8EC80A3
:100FE000404502D14FF003082BE0DFF8E480404594
:100FF00002D14FF0040824E0DFF8D880404502D148
:101000004FF005081DE0DFF8D080404502D14FF0D9
:10101000060816E0DFF8C480404502D14FF007080B
:101020000FE0DFF8BC80404502D14FF0080808E02F
:10103000DFF8B080404502D14FF0090801E04FF0E1
:101040000A0808FA07F848EA0608CCF80888DAF827
:1010500000605746D1F804C09E435FEACC3C00D5FF
:101060001E433E60DBF800605F46D1F804C09E433B
:101070005FEA8C3C00D51E433E60DEF80060774698
:10108000D1F804C09E435FEACC2C00D51E433E60DD
:10109000084F0C373E68D1F804C09E435FEA8C2CA1
:1010A00000D51E433E60521C102AFFF411AFBDE86C
:1010B000F88F0000003C01404438024000300140FD
:1010C000000002400004024000080240000C024000
:1010D000001002400014024000180240001C0240B0
:1010E0000020024000240240014880687047000050
:1010F0000000002002488168027811448160704736
:10110000000000200B4810B5016841F40071016037
:10111000016841F480610160016841F480710160FF
:10112000032000F06FF8002000F006F800F024F82B
:10113000002010BD003C024070B50D4D04464FF438
:101140007A712878B1FBF0F00A490968B1FBF0F038
:1011500000F00CFB48B9102C07D200222146501E8B
:1011600000F030F800206C6070BD012070BD000000
:10117000000000200C0000200A4808B5016841F476
:1011800080410160006800F4804000900548001F25
:10119000016841F080510160006800F080500090CB
:1011A00008BD000044380240002809DB00F01F029F
:1011B000012191404009800000F1E020C0F80011B9
:1011C00070470000F0B40E4B1B680C46C3F30223BB
:1011D000C3F10705042D00D90425191D072901D2E3
:1011E000002300E0DB1E012606FA05F1491E21401E
:1011F00099409E40761E16403143F0BC02F081BB00
:101200000CED00E0064900F0070208684FF6FF0306
:10121000184040EA0220034A10430860704700006B
:101220000CED00E00000FA052DE9F0470E46050040
:1012300065D0DFF81481D8F80000F7B200F00F0095
:10124000B04207D288F80070D8F8000000F00F0014
:10125000B04254D128683D4C810712D5400703D5D0
:10126000206840F4E05020602878000703D520680B
:1012700040F4604020602068A96820F0F000084336
:1012800020602878C0072DD03049686808390128C7
:1012900012D0022813D0032811D009688907002929
:1012A0002DDA216821F0030101432160FFF71CFFC3
:1012B000814641F2883A0EE009688903EFE7096840
:1012C0008901ECE7FFF710FFA0EB0901514502D9B6
:1012D0000320BDE8F0872068696800F00C00B0EBDF
:1012E000810FEFD1D8F80010404601F00F01B14254
:1012F00007D90770006800F00F00B04201D001204C
:10130000E7E72878400705D52068E96820F4E05031
:10131000084320602878000706D52068296920F452
:10132000604040EAC100206000F038F82168084AB7
:10133000C1F30311515CC8400649086006480068C3
:10134000FFF7FAFE0020C4E7003C024008380240E4
:10135000343A00080C00002004000020044805492D
:1013600000680968044AC1F38221515CC840704793
:101370000C00002008380240443A0008044805499F
:1013800000680968044AC1F34231515CC8407047A3
:101390000C00002008380240443A0008154810B5F7
:1013A000006810F00C02144813D01449042A0FD01E
:1013B000082A0ED10F4C241F2268236802F03F0236
:1013C0005B0207D52068C0F38810A0FB010106E08E
:1013D000084610BD2168C1F38811A1FB000100235C
:1013E000FEF702FF2168C1F30141491C4900B0FB2F
:1013F000F1F010BD083802400024F400001BB700D3
:101400002DE9F84F04006ED02078DFF84C93C00728
:10141000A9F104054AD009F104000168C1F3810172
:10142000012908D00068C0F3810002280AD1D9F848
:101430000000400206D52868800337D56068002880
:10144000E1D033E06068B0F5803F10D0B0F5A02F58
:10145000286810D020F480302860286820F480208C
:1014600028606068A8B1FFF73FFE06460DE02868D7
:1014700040F48030F4E740F480202860F7E700BFB4
:10148000FFF732FE801B642873D828688003F7D5E5
:101490000CE0FFF729FE064605E000BFFFF724FE3B
:1014A000801B6428F0D828688003F7D42078DFF800
:1014B000AC8280074FF0000A3ED5A748001D0168A6
:1014C00011F00C0F08D00068C0F3810002280BD186
:1014D000D9F80000400207D42868800716D5E068D4
:1014E000012800D112E033E1E068B8B10120C8F86A
:1014F0000000FFF7F9FD064605E000BFFFF7F4FD29
:10150000801B0228C0D828688007F7D52868216981
:1015100020F0F80040EAC10028600DE0C8F800A003
:10152000FFF7E2FD064604E0FFF7DEFD801B022820
:101530001FD828688007F7D42078000722D5864F67
:1015400087486169703771B101210160FFF7CCFDF7
:10155000064604E0FFF7C8FD801B022809D838685A
:101560008007F7D50EE0C0F800A0FFF7BDFD0646E6
:1015700005E082E0FFF7B8FD801B02287DD83868BF
:101580008007F7D42078400768D5DFF8CCB1002772
:101590000BF13C0BDBF80000C0000BD4DBF80010B3
:1015A00041F08051CBF80010DBF80000012700F07B
:1015B000805000906B4E3068C00510D4306840F405
:1015C00080703060FFF790FD009005E0FFF78CFD24
:1015D0000099401A022850D83068C005F6D55E4EF2
:1015E000A0686C3601280FD00528306810D020F094
:1015F00001003060306820F004003060A068B8B1AD
:10160000FFF772FD00900FE0306840F00100F4E752
:1016100040F004003060F7E7FFF766FD0099411ADB
:1016200041F28830814266D830688007F4D50EE0F8
:10163000FFF75AFD009007E0FFF756FD0099411AA9
:1016400041F28830814256D830688007F4D42FB1F7
:10165000DBF8001021F08051CBF80010A069C8B36E
:101660003D49091D0968C1F3810102294AD00228B8
:10167000504607D0C8F8600000E03CE0FFF734FDBA
:1016800004463BE04746C8F86000FFF72DFD0646DC
:1016900005E000BFFFF728FD801B02282BD8286833
:1016A0008001F7D4D4E907010843A16A2E4A49080A
:1016B00002EB0141626A41EA8211084394F82C105E
:1016C00040EA0161C9F8001001203866FFF70CFDFF
:1016D000044606E03EE000BFFFF706FD001B0228BF
:1016E00009D828688001F7D534E000BFFFF7FCFC7B
:1016F000001B022802D90320BDE8F88F286880016A
:10170000F4D427E00128F7D0D9F80000E26900F40A
:10171000800191421CD1226A00F03F01914217D111
:1017200047F6C071626A0140B1EB821F10D1A26A14
:101730004FF0FF3300F4403103EB5202B1EB024FA4
:1017400006D194F82C1000F07060B0EB016F01D05E
:101750000120D1E70020CFE70438024000004742D3
:10176000800E4742007000400000FFFF10B5401E91
:10177000B0F1807F01D3012010BD4FF0E024606103
:101780000F21601702F0BDF80020A0610720206142
:10179000002010BD7047704710B590F83C20012A1A
:1017A00022D0012280F83C20CA688C6822F4407262
:1017B00022434C6822F4806222430C6822F40062C7
:1017C00022430C6922F4805222434C6922F40052D5
:1017D0002243C969002322F480420A4301684A6413
:1017E00080F83C30002010BD022010BD70B590F88C
:1017F0003C20012A32D0012480F83C40022280F8AB
:101800003D2003685A689D6822F070060A683243DA
:101810005A60134B02689A4214D0B2F1804F11D033
:10182000104B9A420ED0104B9A420BD00F4B9A425B
:1018300008D00F4B9A4205D00E4B9A4202D00E4B65
:101840009A4204D1496825F080031943916080F8D9
:101850003D40002180F83C10084670BD022070BD5C
:10186000000001400004004000080040000C00405F
:1018700000040140004001400018004010B5040081
:1018800003D094F83D0010B107E0012010BD002006
:1018900084F83C00204600F01FF8022084F83D0048
:1018A000211D206801F05AFD012084F8460084F8CB
:1018B0003E0084F83F0084F8400084F8410084F83A
:1018C000420084F8430084F8440084F8450084F81A
:1018D0003D00002010BD000008B50068B0F1804F49
:1018E0000CD01049884208D10F48016841F002012C
:1018F0000160006800F00200009008BD0A48001F67
:10190000016841F0010101600068002200F001005F
:10191000009011461C20FFF755FCBDE808401C2034
:10192000FFF742BC000401404438024090F83D10EB
:10193000012901D001207047022180F83D10016883
:10194000CA6842F00102CA6000681149884214D096
:10195000B0F1804F11D00F4988420ED00E49884215
:101960000BD00E49884208D00D49884205D00D4958
:10197000884202D00C49884204D1816801F00701F5
:10198000062903D0016841F0010101600020704781
:10199000000001400004004000080040000C00402E
:1019A00000040140004001400018004070B50446AA
:1019B00090F83C000025012817D0012684F83C60EF
:1019C000022084F83D002068826822F0770222F429
:1019D0007F4282600868502838D00DDC20284FD024
:1019E00005DC90B3102811D14AE0022070BD3028E8
:1019F00046D040280AD13BE060282FD070280DD077
:101A0000B0F5805F03D0B0F5005F12D0012584F8F7
:101A10003D60002084F83C00284670BDCB68D1E9C9
:101A20000121206801F00BFD2068816841F07701F9
:101A300009E0CB68D1E90121206801F000FD2068B0
:101A4000816841F480418160E1E719E0CA68496832
:101A5000206801F0C9FD5021206806E0CA68496885
:101A6000206801F0D2FD6021206801F0F2FCCEE791
:101A7000CA684968206801F0B7FD40212068F4E792
:101A8000226801461046F0E72DE9F0410D460400BA
:101A900003D094F83D0018B108E00120BDE8F081C2
:101AA000002084F83C00204600F040F8022084F832
:101AB0003D002068816844F2070291438160211D46
:101AC000206801F04BFC226890689169166A2B68C7
:101AD000AF69034340F20330814341EA0721A8681C
:101AE000EF6908434FF6FC418843E96840EA072064
:101AF000014328692F6A000140EA073008436968FA
:101B00006D6926F0AA0646EA051529439360226806
:101B1000906154F8460B0162012004F81F09E0753A
:101B20002076E0762077A0750020B7E730B587B043
:101B3000044614216846FEF78FFB214824681F4D98
:101B400000221F4910380223AC4217D10C6844F020
:101B500004040C60096801F004010591016841F07A
:101B6000080101600068694600F0080005904FF424
:101B700040500090CDE90132124818E0124DAC42BD
:101B800019D10C6844F008040C60096801F00801E0
:101B90000591016841F0010101600068694600F0AB
:101BA0000100059003200090CDE901320748CDE9FE
:101BB0000323FFF77FF907B030BD000000080040A5
:101BC00040380240000C0240000C0040000002407F
:101BD00070B590F83E60044690F83F5090F842305F
:101BE00090F84320022021B104290ED0012E1BD1F0
:101BF00014E0012E18D1012B16D184F83E0084F890
:101C0000420001220021206820E0012D0CD1012A90
:101C10000AD184F83F0084F8430014E0012D03D179
:101C2000012B01D1012A01D0012070BD84F83E00B2
:101C300084F83F0084F8420084F843000122002128
:101C4000206801F0EFFB01220421206801F0EAFB8B
:101C50002068016841F001010160002070BD7047FB
:101C600070B50446006801694FF00005C943890753
:101C700015D4C168C943890711D4E91E0161012047
:101C80002077206880698007204602D0FFF7E7FFB1
:101C900004E000F0C3F8204600F055F925772068ED
:101CA0000169C943490717D4C168C943490713D417
:101CB0006FF004010161022020772068806910F430
:101CC000407F204602D0FFF7CAFF04E000F0A6F8EC
:101CD000204600F038F9257720680169C9430907D3
:101CE00016D4C168C943090712D46FF00801016115
:101CF000042020772068C0698007204602D0FFF7C3
:101D0000AEFF04E000F08AF8204600F01CF92577C9
:101D100020680169C943C90617D4C168C943C90607
:101D200013D46FF010010161082020772068C0698A
:101D300010F4407F204602D0FFF791FF04E000F04E
:101D40006DF8204600F0FFF8257720680169C94347
:101D5000C90708D1C168C943C90704D1891E0161F7
:101D6000204600F055F920680169C943090609D4E5
:101D7000C168C943090605D46FF08001016120469E
:101D8000FFF708FD20680169C943490609D4C16805
:101D9000C943490605D46FF040010161204600F0B7
:101DA00041F920680169C94389060BD4C168C94358
:101DB000890607D46FF0200101612046BDE870401C
:101DC000FFF7E9BC70BD000010B586B004461421D1
:101DD0006846FEF741FA0E492068884215D10D4841
:101DE0000021026842F480720260006800F4807092
:101DF0000590602000900220CDE901010320CDE98B
:101E0000031069460448FFF755F806B010BD0000FE
:101E1000000401403038024000200240704770B595
:101E2000044690F83C0000260D4601280FD0012002
:101E300084F83C006AB1042A1DD0082A2FD00C2A4D
:101E40003FD00126002084F83C00304670BD0220BF
:101E500070BD206801F006FB2068816941F008012F
:101E600081612068816921F00401816120688169B4
:101E70002A69114311E0206801F024FB2068816980
:101E800041F4006181612068816921F48061816190
:101E9000206881692A6941EA02218161D2E72068CC
:101EA00001F046FB2068C16941F00801C16120686A
:101EB000C16921F00401C1612068C1692A69114327
:101EC00011E0206801F068FB2068C16941F40061FD
:101ED000C1612068C16921F48061C1612068C16964
:101EE0002A6941EA0221C161ACE710B5040003D0C0
:101EF00094F83D0010B107E0012010BD002084F8E7
:101F00003C00204600F01EF8022084F83D00211D10
:101F1000206801F023FA012084F8460084F83E008E
:101F200084F83F0084F8400084F8410084F84200BF
:101F300084F8430084F8440084F8450084F83D00A8
:101F4000002010BD7047704710B50446022249B109
:101F500004290ED0082913D094F84100012816D086
:101F6000012010BD94F83E000128F9D184F83E20EC
:101F70000FE094F83F000128F2D184F83F2008E0F8
:101F800094F840000128EBD184F8402001E084F867
:101F900041200122206801F045FA16492068164ABE
:101FA000884201D0904203D1436C43F40043436420
:101FB0002068884213D0B0F1804F10D00F4988427A
:101FC0000DD00F4988420AD00E49884207D090426E
:101FD00005D00D49884202D00C49884204D181685D
:101FE00001F00701062903D0016841F001010160F9
:101FF000002010BD0000014000040140000400402A
:1020000000080040000C0040004001400018004063
:1020100003490968884201D101F040B870470000C7
:102020001C0000207047704770470000F8B5016839
:1020300004460868CA684B6910F00F0F4FF000059E
:1020400059D003F0010602F49077374365D0C107F9
:1020500005D0D10503D5216C41F001012164410770
:1020600005D5D90703D0216C41F002012164810715
:1020700005D5D90703D0216C41F004012164010783
:1020800007D502F02001314303D0216C41F0080153
:102090002164216C00293AD0800604D5900602D52F
:1020A000204601F0F3FA20684069216CC0F38010EB
:1020B000090700D460B3204601F0C1FA20684069E6
:1020C000400621D52068143050E8001F21F040015F
:1020D00040E80012002AF5D1A06BA8B16C49016557
:1020E000A06BFEF765FD002811D0A06B016D01B05B
:1020F000BDE8F040084783060FD593060DD520466E
:10210000BDE8F84001F0C2BA2046FFF78DFFF8BDE8
:102110002046FFF789FF2564F8BD266B2023012E9A
:1021200079D1C60677D5D60675D508684868009077
:102130004869400640D5A16B086840680004000C5F
:10214000EAD0A28D8242E7D9E085C869B0F5807FE8
:102150002DD020680C3050E8001F21F4807140E839
:102160000012002AF5D12068143050E8001F21F039
:10217000010140E80012002AF5D12068143050E82F
:10218000001F21F0400140E80012002AF5D184F838
:102190003E30256320680C3050E8001F21F010010C
:1021A00040E80012002AF5D1A06BFEF7B8FCA08D24
:1021B000E18D401A81B229E0A08DE18D401A81B2F3
:1021C000E08D0028A8D00029A6D020680C3050E867
:1021D000002F22F4907240E80026002EF5D12068EE
:1021E000143050E8002F22F0010240E80026002EB3
:1021F000F5D184F83E30256320680C3050E8002F7C
:1022000022F0100240E80023002BF5D12046FFF712
:102210000AFFF8BDFFE705062BD5150629D594F86A
:102220003D002128F5D1A068B0F5805F01D120697B
:10223000B0B1206A411C2162216800784860E08CBE
:10224000401E0004000CE084E3D12068C16821F046
:102250008001C1602068C16841F04001C160D8E7D9
:10226000206A0088C0F308004860206A801C206251
:10227000E5E74006CDD55006CBD5CA68204622F00A
:102280004002CA6084F83D3000F08FF8C1E70000DA
:102290002F36000870B5040004D094F83D000025E6
:1022A00010B106E0012070BD84F83C50204600F0DB
:1022B00023F8242084F83D002068C16821F40051EF
:1022C000C160204601F042FA2068016921F4904182
:1022D00001612068416921F02A0141612068C168DB
:1022E00041F40051C1602564202084F83D0084F849
:1022F0003E00002070BD000070B586B00646142177
:102300006846FDF7A9FF23493068884240D122483A
:102310000025016841F010010160006800F0100024
:1023200005901D481438016841F002010160006801
:10233000694600F002000590C02000900220CDE91F
:10234000010503200390072004901448FEF7B2FD16
:10235000144C134820604FF00060C4E9010540149C
:10236000C4E9035080106561C4E906502562204627
:102370006562FEF7FFFC08B1FEF747F8B463002280
:1023800011462520A663FEF71DFF2520FEF70CFF52
:1023900006B070BD00100140443802400004024005
:1023A00040640240B401002070477047FEE700001F
:1023B0000F4810B50D4901600321416000214FF421
:1023C00010228160C0E903124FF4001242610176CD
:1023D00041768176C17601774177FEF790FA002841
:1023E00003D0BDE81040FEF710B810BD00640040F7
:1023F00028000020094808B5016841F48001016007
:102400000068002200F48000009011463A20FEF798
:10241000D9FEBDE808403A20FEF7C6BE303802407B
:10242000154808B5016841F002010160016801F03A
:1024300002010091016841F001010160016801F0B1
:1024400001010091016841F008010160016801F09B
:1024500008010091016841F480710160016801F494
:1024600080710091016841F080010160006800F016
:102470008000009008BD00003038024010B586B0E2
:1024800000241648009401940294039404944FF09D
:102490008041059401605321C0E9011441F2873164
:1024A000C0E903148461FFF7E9F908B1FDF7ADFF56
:1024B0004FF48050009069460848FFF777FA08B15A
:1024C000FDF7A3FF049404A904480594FFF78EF9CF
:1024D000002801D0FDF799FF06B010BD5000002084
:1024E00010B58CB024216846FDF7B6FE00241648CE
:1024F000099414490A94C0E900144FF6FF71C0E929
:102500000241046184610320CDE900040120CDE98A
:1025100002040494CDE90540079469460A480894EA
:10252000FFF7B2FA08B1FDF770FF099409A9064850
:102530000A94FFF75BF9002801D0FDF766FF0CB0A5
:1025400010BD0000000800409800002010B58CB0BD
:1025500024216846FDF780FE00241548099413499C
:102560000A94C0E90014611EC0E90241046184615B
:102570000320CDE900040120CDE902040494CDE953
:102580000540079469460A480894FFF77DFA08B1A8
:10259000FDF73BFF099409A905480A94FFF726F9BE
:1025A000002801D0FDF731FF0CB010BD000C004039
:1025B000E000002010B596B000240F941094119400
:1025C000129413941C2168461494FDF745FE2021B3
:1025D00007A8FDF741FE2C482A490160A721C0E960
:1025E000011440F2CF71C0E9031444618461FFF724
:1025F00045F908B1FDF709FF4FF480500F900FA97E
:102600002148FFF7D3F908B1FDF7FFFE1E48FFF799
:102610006CFC08B1FDF7F9FE139413A91A48149441
:10262000FFF7E4F808B1FDF7F0FE6020CDE9000403
:102630000294039404940594002269461248069477
:10264000FFF7EDFB08B1FDF7E0FE042269460E48F6
:10265000FFF7E5FB08B1FDF7D8FE0794089409944D
:102660004FF400500A94CDE90B4007A906480E9498
:10267000FFF792F808B1FDF7C8FE0348FFF7A4FB87
:1026800016B010BD00040140280100200D4810B50F
:102690000B4901600C49416000214FF48062816068
:1026A000C0E903120422C0E90521C161FFF7F2FD70
:1026B000002803D0BDE81040FDF7A7BE10BD000004
:1026C0000010014070010020A0860100FEE700001C
:1026D0002DE9F04104460F460699C4E90E72012027
:1026E00084F8640016461D460B4A04F17000A36688
:1026F00001F058F931463846FFF726FC3C212846C0
:10270000FFF766FA9FED050A204600F004FC20461C
:10271000BDE8F04100F00DBCFC020020CDCC4C3EE9
:1027200070B5826E04461068406A0E4980B2E0803F
:10273000237913B14FF6FF73181A034608604FF65A
:10274000E8550020AB4200DB08601268506291ED52
:10275000000A04F17000B8EEC00A01F0F1F884ED4F
:10276000040A70BD1800002080ED030A704770B5A0
:10277000C178002919D000F13C0500F10C040129B1
:102780000DD0022911D100F150012430064600F08D
:10279000FCF9304600F044FA204600F04AFA294697
:1027A0002046BDE8704000F0F0B970BD2DE9F05F43
:1027B0000AAD022695E8000E0446032A05D01D4600
:1027C000082B09D90670BDE8F09F181DC5B2681F17
:1027D000072801D32670F6E72048814229D12048F6
:1027E00020494FF0030C30F815000F88384202D012
:1027F00084F800C0E7E738430880042D07D81A485A
:1028000000EB850040F8044C0120207211E0082DF7
:1028100007D815482C3000EB850040F8144C267280
:1028200007E01148583000EB850040F8244C84F84C
:1028300008C004202070627084F8029084F803A01D
:10284000637105F50075E58084F804B0204600F05A
:10285000D5F82046BDE8F05F00F054B9280000200C
:102860004C3A0008100000201402002070B50C0043
:1028700001467DD0B4F96430A4F86C30088840BAC1
:1028800000B2A4F864004A8852BA12B2A4F86620D2
:102890008D886DBAA4F86850897984F86A10A17897
:1028A000012906D0042914D0032912D0052910D0FB
:1028B00098E0607801280BD100EE102AF8EEC00AEB
:1028C0009FED4B1A04F10C0080EE810A00F0AEF986
:1028D00088E0C21A41F27C53DA4203DAB4F86E207F
:1028E000521C06E041F27C539A4204DDB4F86E209B
:1028F000521EA4F86E209FED3F0A052904D004293A
:1029000002D003291FD06DE0B4F96E1000EE901ACA
:10291000B8EEE01ADFED380A61EE201A01EE100A77
:10292000B8EEC11A21EE001A41EE201A01EE100A8B
:10293000B8EEC11AC4ED1F1A21EE000A20EE200ADB
:1029400084ED1E0A4EE0B4F96E1001EE100A00EE9E
:10295000901AF2EE041AB8EEC11AF8EEE00A21EE6F
:10296000000A60EEA10A40EE210AC4ED1F0A00E051
:102970003CE042F21073002504F1240299420FDD7D
:1029800001EB8100400000EE100A6FF00900B8EE84
:10299000C00A30EEC00A84ED1F0A11FB00F00EE001
:1029A00042F21070C14213DA01EB8100400000EEE8
:1029B000100AB8EEC00A30EE800A84ED1F0A00EE5D
:1029C000100A1046B8EEC00A00F0D8F8A4F86E500D
:1029D00094F8700030B994ED1F0A012084ED1D0AAF
:1029E00084F87000FEF780FBC4F8800070BD000022
:1029F0009A999941000000390000B443002120F861
:102A00006C1F01714180416170470000174B30B469
:102A1000984229D11648A1F2012100F12C0300F1BE
:102A200058040B2920D2DFE801F006080A0C0E102A
:102A3000121416181A00016812E0416810E081684B
:102A40000EE0C1680CE019680AE0596808E099686E
:102A500006E0D96804E0216802E0616800E0A1684E
:102A600030BC1046FFF702BF30BC70472800002082
:102A700014020020094A904205D1012905D00229FB
:102A800005D0032906D00020704705487047044848
:102A90002C30704702485830704700002800002052
:102AA00014020020007A704710B54FF400720B49F1
:102AB0000B4800F017F80A4840F2FF1207492C3083
:102AC00000F010F8064840F2FF220449583000F0A8
:102AD00009F8BDE810400148FDF702BC28000020BD
:102AE0001402002010B50161044611461430FDF7B0
:102AF00023FC00214FEA010044F82100491C04296D
:102B0000FADB10BDC178002904D0012902D10C30B4
:102B100000F074B870471CB5030016D069461868F9
:102B200000F014F86C46A11C586800F00FF8211D45
:102B3000986800F00BF8A11DD86800F007F86A4605
:102B400003F114011869FDF7FFFB1CBD78B190ED8E
:102B5000210ABDEEC00A10EE102A12120A7090ED82
:102B6000210ABDEEC00A10EE100A4870704700201E
:102B70000870FAE780ED210A70477047D0ED000A2F
:102B800030EE800A80ED000A704770B50D462DEDDD
:102B9000028B044690EC020A30EE608A90ED040A43
:102BA00030EE080A80ED040AD0ED020AC0ED030AF7
:102BB00080ED028A78EE608AD1ED030AB1EE601AE8
:102BC00000F008FF84ED040AD5ED010A20EE800A2A
:102BD000D5ED000A00EE880AD5ED020A00EEA80A3B
:102BE00084ED050AD5ED040AB1EE601A00F0F2FE9C
:102BF00084ED050ABDEC028B70BD00009FED070A55
:102C000080ED000A80ED010A80ED020A80ED030AE2
:102C100080ED040A80ED050A704700000000000006
:102C200090ED050A704780EC050A704780ED010AB7
:102C3000704780ED000A704770470000024901FAB2
:102C400080F000B27047000000FCFFFF01F00102BD
:102C50000270C1F340028270C1F380024270C1F37E
:102C6000C002C270C1F300120271C1F3401242717E
:102C7000C1F380128271C1F3C012C271C1F300228C
:102C80000272C1F340224272C1F380228272C1F308
:102C9000C022C272C1F300320273C1F340324273E8
:102CA000C1F380328273C90BC173704770B50D4692
:102CB0000446122A5CD1042084F82400FEF714FA9A
:102CC000A0622888C0F30A00FFF7B8FF2080687868
:102CD000A978C00840EA4110C0F30A00FFF7AEFF30
:102CE0006080A878E978800940EA8100297940EA83
:102CF0008120C0F30A00FFF7A1FFA080287969793D
:102D0000400840EAC110C0F30A00FFF797FFE080D7
:102D100068798009A0726879C0F30110E072E888D0
:102D2000A0812889E08168892082287BA074687B43
:102D3000E074E98904F11400FFF788FF288AC0F3E2
:102D40000A00FFF77BFF208110F5806F01D1002082
:102D50002081204600F028F838B1032084F82400B0
:102D60002046BDE8704000F055B8012084F82400EA
:102D700070BD000010B50A4C20600A4800F04AF807
:102D8000FEF7B2F907498862206800F074FD054932
:102D900020683622BDE81040383900F076BD0000CA
:102DA00014000020D002002000214FF4AF6300BFC8
:102DB00030F9112002F52F729A4208D8491C0529D2
:102DC000F6DB817A19B1C07A08B100207047012082
:102DD0007047000010B50446806B0068016821F060
:102DE00001010160A06B006800F042FD0849C0F1DC
:102DF000360201F13800FFF759FFA16B3620096850
:102E00004860A06B0068016841F00101016010BDDD
:102E1000980200200022114620F81210521C052AA8
:102E2000FADB00228272C2728181C18101828174C7
:102E3000C17411461430FFF709BF000030B52F49A7
:102E400001242F4881F82540CA7A9FED2E0AF3EE1F
:102E50000E0A012A12D0022A1AD0032A11D080EDBC
:102E6000010A80ED020A8D7A02230022012D12D080
:102E7000022D18D0032D12D002700DE09FED221A02
:102E800001E09FED221A80ED011AC0ED020AEAE787
:102E90009FED1F1AF7E7047080ED010A00E0037050
:102EA00080ED020A01E003240470B1F90440644299
:102EB000B4F5FA7F02DD8578022D03D08578012DE7
:102EC00002D005E0827003E0B4F5C87F00DA8370B9
:102ED000B1F90440644214F5FA7F02DAC578022D94
:102EE00003D0C578012D02D005E0C27003E014F5CF
:102EF000C87F00DDC37081F8252030BDD0020020DE
:102F000074030020000000000000574300006643E7
:102F100000008C43704780ED170A816BD1ED030AE6
:102F2000F8EE600A20EE800ABDEEC00A80ED1B0AB2
:102F30007047C26BC16E806B00682AB1042A05D04D
:102F4000082A05D001647047416370478163704768
:102F5000C163704730B53F4802212DED048B83B02B
:102F600000248170C170447014253B4B22463B49BC
:102F700094300095FFF7ACFB394B042237493948B0
:102F80000095FFF7A5FB374801257C3805717C309B
:102F900004717C3800F056F9324800F053F90320F0
:102FA000CDE900052B48042302222F4902940C305E
:102FB000FFF7FCFB27480C30FFF774FD01462A4859
:102FC000FFF758FD2949DFED2A8A9FED2A8A9FEDF8
:102FD0002A9A88602348B0EE682AF0EE481AB2EECA
:102FE000041AF0EE490AB3EE020A5838FFF71BFE46
:102FF0001C48B0EE682AF0EE481AB2EE041AF0EE61
:10300000490AB3EE020A2430FFF70DFEDFED1B8AFA
:103010001048B0EE482AF0EE481AB0EE681ADFED1C
:10302000180A9FED180A4830FFF7FDFD03B0B0EE17
:10303000482AF0EE481AF0EE680ABDEC048B054809
:10304000BDE830409FED101A9FED100A5C30FFF78D
:10305000EABD000074030020980000202801002031
:10306000E000002084040020280000201C00002034
:1030700000409C4600401C46CDCCCC3D00000000EA
:103080000AD7233C0000FA43AE47E13D000020424E
:1030900001480068FEF74ABC1C0000202DE9F047FB
:1030A000484C0127E07838B96078012801D0012028
:1030B00000E000206070E77042489430FFF730FB7A
:1030C0004148FFF72DFB414E94ED010A3E48D6EDF5
:1030D000010A7C3820EE200AFFF746FB94ED010A36
:1030E000D6ED010A384820EE200AFFF73DFB607854
:1030F00000283548A0F17C0034D000F0ADF832480B
:1031000000F0AAF82F4D9FED321A0C35B5F9660084
:1031100000EE100A05F10C008046F8EEC00A80EEC1
:10312000810AFFF783FD05F1240095ED1F0A814612
:10313000FFF77CFD94ED020A4046FFF77AFD207808
:10314000022815D0EF701F480C30FFF710FB1D4808
:1031500095ED080A0C30FFF70DFDB068BDE8F047AB
:10316000FFF7D9BC00F038F8174800F035F8C9E788
:10317000A07820B103280ED002281BD01FE095EDC7
:103180001F0ADFED140A484630EE200AFFF751FD12
:103190000320A07013E095ED0A0AD5ED090A30EE80
:1031A000600AB0EEC00A10EE100AB0F17E5F06DAD7
:1031B000A77004E095ED1F0A4846FFF73AFD02208C
:1031C000E870C0E774030020840400201C00002085
:1031D000000010420000344270B5044600F12401A2
:1031E0000C300546FFF7D1FC2846FFF719FDDFED4F
:1031F000110AB1EE0C1A114920EE200AC0EE010AA4
:103200009FED0D0A30EE800A10EE100AB0F17C5FDF
:1032100002DAB6EE000A05E010EE100A884201DD7F
:103220009FED070A2046FFF776FE2046BDE8704076
:10323000FFF77FBE6B9FE938C16EF83E48E17A3FE9
:1032400048E17A3F90F86410002903D1C16B806B8C
:10325000FEF77ABE7047000000B5D0ED030A9FED7F
:103260000F1A9FED0F0A0F4B024600EE810A10EE77
:10327000101AB1F17C5F02DAB6EE000A05E010EE3A
:10328000100A984201DD9FED080A1046FFF743FE41
:1032900010465DF804EBFFF74CBE0000F289E938F8
:1032A0000950F33E48E17A3F48E17A3FFDF722BFFB
:1032B00030B593B030216846FCF7CEFF14210CA83E
:1032C000FCF7CAFF19480025016841F080510160F0
:1032D000006800F0805011901548016841F44041A9
:1032E00001600068022400F4404011900120009029
:1032F000000401908001CDE9064006200890A82036
:10330000CDE9090404200B906846FEF779F80CA972
:103310000F2081E831004FF4A0500F90E002109090
:1033200005210CA8FDF780FF13B030BD40380240E6
:10333000007000400548016841F4700101600349D4
:103340004FF00060803908607047000088ED00E0B1
:103350000148FEF785BC000050000020F0B502686F
:10336000254C264D264E274F274B4FF0804CA04230
:1033700009D0604507D0A84205D0B04203D0B8427A
:1033800001D0984204D122F0700E4A6842EA0E023F
:10339000A0421BD0604519D0A84217D0B04215D02A
:1033A000B84213D0984211D0184DA8420ED0184DF3
:1033B000A8420BD0174DA84208D0174DA84205D0FF
:1033C000164DA84202D0164DA84203D122F44075F2
:1033D000CA682A434D6922F080022A4302608A6843
:1033E000C2620A688262A04201D0984201D1096992
:1033F000016301214161F0BD000001400004004073
:1034000000080040000C0040000401400040014062
:10341000004401400048014000180040001C0040EA
:103420000020004010B501F01F030121046A9940FB
:103430008C430462016A9A401143016210BD10B5C9
:10344000846842EA032224F47F440A4322438260D0
:1034500010BD826822F070020A4342F007018160C9
:1034600070470000F0B5026A22F001020262036AAE
:1034700042688469124E24F073050C682C4323F0D3
:1034800002058B682B430D4DA84201D0B04205D1F7
:1034900023F00807CB683B4323F00403A84201D084
:1034A000B04205D14D6922F4407215438A692A431E
:1034B00042608461496841630362F0BD00000140DD
:1034C00000040140F0B5026A22F010020262026AB2
:1034D000436884690D6824F4E64444EA05248D6851
:1034E00022F0200242EA05120F4D104EA84201D0F0
:1034F000B04206D1CF6822F0800242EA071222F0E1
:103500004002A84201D0B04207D14D6923F4406384
:1035100043EA85038D6943EA850343608461496812
:1035200081630262F0BD0000000001400004014020
:10353000F0B5026A22F480720262026A4368C469CA
:1035400022F4007224F073050C68124E2C438D682F
:1035500042EA05220E4DA84201D0B04206D1CF6802
:1035600022F4006242EA072222F48062A84201D0DB
:10357000B04207D14D6923F4405343EA05138D69E6
:1035800043EA05134360C4614968C1630262F0BD48
:10359000000001400004014030B5026A22F480526C
:1035A0000262046A4268C3690D6823F4E64343EA91
:1035B00005238D6824F4005444EA0534084DA842DC
:1035C00002D0084DA84204D14D6922F4804242EA5B
:1035D00085124260C36149680164046230BD000025
:1035E000000001400004014010B5036A046A24F0A1
:1035F00001040462846924F0F00444EA021423F014
:103600000A020A438461026210BD10B5036A23F006
:10361000100303628369046A23F4704343EA0232AD
:1036200024F0A00343EA01118261016210BD10B5CC
:10363000806B0021C185C184FEF7F6FC10BD0168D6
:103640000C3151E8002F22F4907241E80023002B46
:10365000F5D10168143151E8002F22F0010241E850
:103660000023002BF5D1016B012909D101680C3130
:1036700051E8002F22F0100241E80023002BF5D181
:10368000202180F83E1000210163704708B590F8B2
:103690003E10222901D0022008BD82684FF48053D9
:1036A0009A4201D1016921B1816A9A421BD04AB183
:1036B0000AE00268816A5268C2F308020A80816ADD
:1036C000891C08E0026972B10268526802F07F0248
:1036D0000A70816A491C8162C18D491E0904090C66
:1036E000C18503D019E002685268F1E70168CA6831
:1036F00022F02002CA600168CA6822F48072CA609F
:1037000001684A6922F001024A61202180F83E10D6
:10371000016B012903D0FEF747FE002008BD002100
:10372000016301680C3151E8002F22F0100241E8DA
:103730000023002BF5D101680A68D20602D50A6879
:1037400049680091818DFEF76EFCE6E770B504468E
:1037500000680169E26821F4405111430161216967
:10376000A068E26908436169114308432168CA6897
:1037700049F20C639A430243CA6020684169A26916
:1037800021F440711143416131492068884202D0DF
:103790003049884202D1FDF7F1FD01E0FDF7DEFD81
:1037A000E2690023192164253226B2F5004F6268D0
:1037B00028D0A0FB0101930F9200FCF715FD0146F4
:1037C000B0FBF5F06FF01802504301EB800006EB00
:1037D0000010B0FBF5F000F0F002B1FBF5F002EBE9
:1037E0000012B1FBF5F06FF01803584301EB8000B5
:1037F00006EB0010B0FBF5F000F00F00216810445C
:10380000886070BDA0FB010192185B41FCF7ECFCE5
:103810000146B0FBF5F00201B1FBF5F06FF01803C3
:10382000584301EB800006EBC000B0FBF5F000F060
:10383000F80002EB4002B1FBF5F0584301EB8000C9
:1038400006EBC000B0FBF5F000F00700D6E7000083
:10385000001001400014014010B5044800F031F898
:10386000BDE810400148FEF7E1BB000070010020F8
:10387000406880B2704708B50068016841680091EF
:10388000C16841F01001C16008BD70B5044690F8F0
:103890003E00202814D1002912D0002A10D0A162A5
:1038A000A28500202064134620680A46A56B011DEE
:1038B0002846FDF7C9FA2068416941F0400141619D
:1038C00070BD016882B00A68D20608D5CA68D206FF
:1038D00005D50A684968009102B000F003B802B04B
:1038E00070470000054910B50968884205D1FFF707
:1038F00071FABDE81040FFF7A1BA10BD1400002016
:10390000FEE70907090E002804DB00F1E02080F83B
:103910000014704700F00F0000F1E02080F8141D43
:10392000704702E008C8121F08C1002AFAD1704788
:103930007047002001E001C1121F002AFBD170472F
:1039400010B58168D0ED010A91ED001A0021042321
:1039500070EEC10A70EE800AC0ED010A0BE000BFF4
:10396000826803EB8104144402EB8102D4ED000A67
:10397000491CC2ED000A0278521E8A42F0DC02782D
:103980006FF00303816803EB8202114481ED000AAA
:10399000D0ED010A007800EE100AB8EE401A80EE71
:1039A000810A10BD82609FED030A017080ED010A5B
:1039B000704700000000000010B50548FFF7DAF975
:1039C000FFF772F8FFF7C6FABDE81040FFF760BBDB
:1039D00070010020B4EEE00AF1EE10FA02DDB0EE64
:1039E000600A7047B4EEC10AF1EE10FAF9D2B0EEF7
:1039F000410A7047FDF786FBFFF75AFCFEF710FD02
:103A0000FEF7F8FCFEF7D4FCFEF740FEFEF736FDAD
:103A1000FEF766FDFEF79AFDFEF7CCFDFFF7CCFF43
:103A200000F001F8FCE70A20FDF732BA0006101694
:103A30000006101600000000000000000102030450
:103A4000060708090000000001020304000001004D
:103A50000200040008001000200040008000100058
:103A600000020004843A0008000000202800000042
:103A700022390008AC3A000828000020D8080000CD
:103A800032390008010000001000000000000000B2
:103A90000024F4000000000000000000000000000E
:0C3AA000500000200000804000000000EA
:04000005080001AD41
:00000001FF
